{
  "contractName": "Wallet",
  "abi": [
    {
      "inputs": [
        {
          "internalType": "address",
          "name": "_comptroller",
          "type": "address"
        },
        {
          "internalType": "address",
          "name": "_cEthAddress",
          "type": "address"
        }
      ],
      "stateMutability": "nonpayable",
      "type": "constructor"
    },
    {
      "inputs": [],
      "name": "admin",
      "outputs": [
        {
          "internalType": "address",
          "name": "",
          "type": "address"
        }
      ],
      "stateMutability": "view",
      "type": "function",
      "constant": true
    },
    {
      "inputs": [],
      "name": "cEth",
      "outputs": [
        {
          "internalType": "contract CEthInterface",
          "name": "",
          "type": "address"
        }
      ],
      "stateMutability": "view",
      "type": "function",
      "constant": true
    },
    {
      "inputs": [],
      "name": "comptroller",
      "outputs": [
        {
          "internalType": "contract ComptrollerInterface",
          "name": "",
          "type": "address"
        }
      ],
      "stateMutability": "view",
      "type": "function",
      "constant": true
    },
    {
      "inputs": [
        {
          "internalType": "address",
          "name": "cTokenAddress",
          "type": "address"
        }
      ],
      "name": "getUnderlyingBalance",
      "outputs": [
        {
          "internalType": "uint256",
          "name": "",
          "type": "uint256"
        }
      ],
      "stateMutability": "nonpayable",
      "type": "function"
    },
    {
      "inputs": [],
      "name": "getUnderlyingEthBalance",
      "outputs": [
        {
          "internalType": "uint256",
          "name": "",
          "type": "uint256"
        }
      ],
      "stateMutability": "nonpayable",
      "type": "function"
    },
    {
      "inputs": [
        {
          "internalType": "address",
          "name": "cTokenAddress",
          "type": "address"
        }
      ],
      "name": "getcTokenBalance",
      "outputs": [
        {
          "internalType": "uint256",
          "name": "",
          "type": "uint256"
        }
      ],
      "stateMutability": "view",
      "type": "function",
      "constant": true
    },
    {
      "stateMutability": "payable",
      "type": "receive",
      "payable": true
    },
    {
      "inputs": [
        {
          "internalType": "address",
          "name": "cTokenAddress",
          "type": "address"
        },
        {
          "internalType": "uint256",
          "name": "underlyingAmount",
          "type": "uint256"
        }
      ],
      "name": "deposit",
      "outputs": [],
      "stateMutability": "nonpayable",
      "type": "function"
    },
    {
      "inputs": [
        {
          "internalType": "address",
          "name": "cTokenAddress",
          "type": "address"
        },
        {
          "internalType": "uint256",
          "name": "underlyingAmount",
          "type": "uint256"
        },
        {
          "internalType": "address",
          "name": "recipient",
          "type": "address"
        }
      ],
      "name": "withdraw",
      "outputs": [],
      "stateMutability": "nonpayable",
      "type": "function"
    },
    {
      "inputs": [
        {
          "internalType": "uint256",
          "name": "underlyingAmount",
          "type": "uint256"
        },
        {
          "internalType": "address payable",
          "name": "recipient",
          "type": "address"
        }
      ],
      "name": "withdrawEth",
      "outputs": [],
      "stateMutability": "nonpayable",
      "type": "function"
    }
  ],
  "bytecode": "0x60806040523480156200001157600080fd5b50604051620019543803806200195483398181016040528101906200003791906200016f565b8181816000806101000a81548173ffffffffffffffffffffffffffffffffffffffff021916908373ffffffffffffffffffffffffffffffffffffffff16021790555080600160006101000a81548173ffffffffffffffffffffffffffffffffffffffff021916908373ffffffffffffffffffffffffffffffffffffffff160217905550505033600260006101000a81548173ffffffffffffffffffffffffffffffffffffffff021916908373ffffffffffffffffffffffffffffffffffffffff1602179055505050620001b6565b600080fd5b600073ffffffffffffffffffffffffffffffffffffffff82169050919050565b600062000137826200010a565b9050919050565b62000149816200012a565b81146200015557600080fd5b50565b60008151905062000169816200013e565b92915050565b6000806040838503121562000189576200018862000105565b5b6000620001998582860162000158565b9250506020620001ac8582860162000158565b9150509250929050565b61178e80620001c66000396000f3fe60806040526004361061008a5760003560e01c8063703d795c11610059578063703d795c14610159578063a158657c14610184578063a44026a3146101ad578063f0d23e8f146101d8578063f851a440146102155761009a565b80631031cb5f1461009f57806347e7ef24146100dc5780635fe3b5671461010557806369328dec146101305761009a565b3661009a5761009834610240565b005b600080fd5b3480156100ab57600080fd5b506100c660048036038101906100c1919061105c565b6102c6565b6040516100d391906110a2565b60405180910390f35b3480156100e857600080fd5b5061010360048036038101906100fe91906110e9565b610349565b005b34801561011157600080fd5b5061011a610476565b6040516101279190611188565b60405180910390f35b34801561013c57600080fd5b50610157600480360381019061015291906111a3565b61049a565b005b34801561016557600080fd5b5061016e61072a565b60405161017b91906110a2565b60405180910390f35b34801561019057600080fd5b506101ab60048036038101906101a69190611234565b6107cf565b005b3480156101b957600080fd5b506101c2610a16565b6040516101cf9190611295565b60405180910390f35b3480156101e457600080fd5b506101ff60048036038101906101fa919061105c565b610a3c565b60405161020c91906110a2565b60405180910390f35b34801561022157600080fd5b5061022a610ac1565b60405161023791906112bf565b60405180910390f35b600160009054906101000a900473ffffffffffffffffffffffffffffffffffffffff1673ffffffffffffffffffffffffffffffffffffffff16631249c58b826040518263ffffffff1660e01b81526004016000604051808303818588803b1580156102aa57600080fd5b505af11580156102be573d6000803e3d6000fd5b505050505050565b60008173ffffffffffffffffffffffffffffffffffffffff166370a08231306040518263ffffffff1660e01b815260040161030191906112bf565b602060405180830381865afa15801561031e573d6000803e3d6000fd5b505050506040513d601f19601f8201168201806040525081019061034291906112ef565b9050919050565b600260009054906101000a900473ffffffffffffffffffffffffffffffffffffffff1673ffffffffffffffffffffffffffffffffffffffff163373ffffffffffffffffffffffffffffffffffffffff16146103d9576040517f08c379a00000000000000000000000000000000000000000000000000000000081526004016103d090611379565b60405180910390fd5b60006103e483610ae7565b90508073ffffffffffffffffffffffffffffffffffffffff166323b872dd3330856040518463ffffffff1660e01b815260040161042393929190611399565b6020604051808303816000875af1158015610442573d6000803e3d6000fd5b505050506040513d601f19601f820116820180604052508101906104669190611408565b506104718383610b5f565b505050565b60008054906101000a900473ffffffffffffffffffffffffffffffffffffffff1681565b600260009054906101000a900473ffffffffffffffffffffffffffffffffffffffff1673ffffffffffffffffffffffffffffffffffffffff163373ffffffffffffffffffffffffffffffffffffffff161461052a576040517f08c379a000000000000000000000000000000000000000000000000000000000815260040161052190611379565b60405180910390fd5b8161053484610a3c565b1015610575576040517f08c379a000000000000000000000000000000000000000000000000000000000815260040161056c90611481565b60405180910390fd5b61057d610d20565b6105878383610dad565b600061059284610ae7565b90508073ffffffffffffffffffffffffffffffffffffffff1663a9059cbb83856040518363ffffffff1660e01b81526004016105cf9291906114a1565b6020604051808303816000875af11580156105ee573d6000803e3d6000fd5b505050506040513d601f19601f820116820180604052508101906106129190611408565b50600061061d610e7b565b9050600081905060008173ffffffffffffffffffffffffffffffffffffffff166370a08231306040518263ffffffff1660e01b815260040161065f91906112bf565b602060405180830381865afa15801561067c573d6000803e3d6000fd5b505050506040513d601f19601f820116820180604052508101906106a091906112ef565b90508173ffffffffffffffffffffffffffffffffffffffff1663a9059cbb86836040518363ffffffff1660e01b81526004016106dd9291906114a1565b6020604051808303816000875af11580156106fc573d6000803e3d6000fd5b505050506040513d601f19601f820116820180604052508101906107209190611408565b5050505050505050565b6000600160009054906101000a900473ffffffffffffffffffffffffffffffffffffffff1673ffffffffffffffffffffffffffffffffffffffff16633af9e669306040518263ffffffff1660e01b815260040161078791906112bf565b6020604051808303816000875af11580156107a6573d6000803e3d6000fd5b505050506040513d601f19601f820116820180604052508101906107ca91906112ef565b905090565b600260009054906101000a900473ffffffffffffffffffffffffffffffffffffffff1673ffffffffffffffffffffffffffffffffffffffff163373ffffffffffffffffffffffffffffffffffffffff161461085f576040517f08c379a000000000000000000000000000000000000000000000000000000000815260040161085690611379565b60405180910390fd5b8161086861072a565b10156108a9576040517f08c379a00000000000000000000000000000000000000000000000000000000081526004016108a090611481565b60405180910390fd5b6108b1610d20565b6108ba82610f12565b8073ffffffffffffffffffffffffffffffffffffffff166108fc839081150290604051600060405180830381858888f19350505050158015610900573d6000803e3d6000fd5b50600061090b610e7b565b9050600081905060008173ffffffffffffffffffffffffffffffffffffffff166370a08231306040518263ffffffff1660e01b815260040161094d91906112bf565b602060405180830381865afa15801561096a573d6000803e3d6000fd5b505050506040513d601f19601f8201168201806040525081019061098e91906112ef565b90508173ffffffffffffffffffffffffffffffffffffffff1663a9059cbb85836040518363ffffffff1660e01b81526004016109cb9291906114eb565b6020604051808303816000875af11580156109ea573d6000803e3d6000fd5b505050506040513d601f19601f82011682018060405250810190610a0e9190611408565b505050505050565b600160009054906101000a900473ffffffffffffffffffffffffffffffffffffffff1681565b60008173ffffffffffffffffffffffffffffffffffffffff16633af9e669306040518263ffffffff1660e01b8152600401610a7791906112bf565b6020604051808303816000875af1158015610a96573d6000803e3d6000fd5b505050506040513d601f19601f82011682018060405250810190610aba91906112ef565b9050919050565b600260009054906101000a900473ffffffffffffffffffffffffffffffffffffffff1681565b60008173ffffffffffffffffffffffffffffffffffffffff16636f307dc36040518163ffffffff1660e01b8152600401602060405180830381865afa158015610b34573d6000803e3d6000fd5b505050506040513d601f19601f82011682018060405250810190610b589190611529565b9050919050565b600082905060008173ffffffffffffffffffffffffffffffffffffffff16636f307dc36040518163ffffffff1660e01b8152600401602060405180830381865afa158015610bb1573d6000803e3d6000fd5b505050506040513d601f19601f82011682018060405250810190610bd59190611529565b90508073ffffffffffffffffffffffffffffffffffffffff1663095ea7b385856040518363ffffffff1660e01b8152600401610c129291906114a1565b6020604051808303816000875af1158015610c31573d6000803e3d6000fd5b505050506040513d601f19601f82011682018060405250810190610c559190611408565b5060008273ffffffffffffffffffffffffffffffffffffffff1663a0712d68856040518263ffffffff1660e01b8152600401610c9191906110a2565b6020604051808303816000875af1158015610cb0573d6000803e3d6000fd5b505050506040513d601f19601f82011682018060405250810190610cd491906112ef565b905060008114610d19576040517f08c379a0000000000000000000000000000000000000000000000000000000008152600401610d10906115c8565b60405180910390fd5b5050505050565b60008054906101000a900473ffffffffffffffffffffffffffffffffffffffff1673ffffffffffffffffffffffffffffffffffffffff1663e9af0292306040518263ffffffff1660e01b8152600401610d7991906112bf565b600060405180830381600087803b158015610d9357600080fd5b505af1158015610da7573d6000803e3d6000fd5b50505050565b600082905060008173ffffffffffffffffffffffffffffffffffffffff1663852a12e3846040518263ffffffff1660e01b8152600401610ded91906110a2565b6020604051808303816000875af1158015610e0c573d6000803e3d6000fd5b505050506040513d601f19601f82011682018060405250810190610e3091906112ef565b905060008114610e75576040517f08c379a0000000000000000000000000000000000000000000000000000000008152600401610e6c90611680565b60405180910390fd5b50505050565b60008060009054906101000a900473ffffffffffffffffffffffffffffffffffffffff1673ffffffffffffffffffffffffffffffffffffffff16639d1b5a0a6040518163ffffffff1660e01b8152600401602060405180830381865afa158015610ee9573d6000803e3d6000fd5b505050506040513d601f19601f82011682018060405250810190610f0d9190611529565b905090565b6000600160009054906101000a900473ffffffffffffffffffffffffffffffffffffffff1673ffffffffffffffffffffffffffffffffffffffff1663852a12e3836040518263ffffffff1660e01b8152600401610f6f91906110a2565b602060405180830381865afa158015610f8c573d6000803e3d6000fd5b505050506040513d601f19601f82011682018060405250810190610fb091906112ef565b905060008114610ff5576040517f08c379a0000000000000000000000000000000000000000000000000000000008152600401610fec90611738565b60405180910390fd5b5050565b600080fd5b600073ffffffffffffffffffffffffffffffffffffffff82169050919050565b600061102982610ffe565b9050919050565b6110398161101e565b811461104457600080fd5b50565b60008135905061105681611030565b92915050565b60006020828403121561107257611071610ff9565b5b600061108084828501611047565b91505092915050565b6000819050919050565b61109c81611089565b82525050565b60006020820190506110b76000830184611093565b92915050565b6110c681611089565b81146110d157600080fd5b50565b6000813590506110e3816110bd565b92915050565b60008060408385031215611100576110ff610ff9565b5b600061110e85828601611047565b925050602061111f858286016110d4565b9150509250929050565b6000819050919050565b600061114e61114961114484610ffe565b611129565b610ffe565b9050919050565b600061116082611133565b9050919050565b600061117282611155565b9050919050565b61118281611167565b82525050565b600060208201905061119d6000830184611179565b92915050565b6000806000606084860312156111bc576111bb610ff9565b5b60006111ca86828701611047565b93505060206111db868287016110d4565b92505060406111ec86828701611047565b9150509250925092565b600061120182610ffe565b9050919050565b611211816111f6565b811461121c57600080fd5b50565b60008135905061122e81611208565b92915050565b6000806040838503121561124b5761124a610ff9565b5b6000611259858286016110d4565b925050602061126a8582860161121f565b9150509250929050565b600061127f82611155565b9050919050565b61128f81611274565b82525050565b60006020820190506112aa6000830184611286565b92915050565b6112b98161101e565b82525050565b60006020820190506112d460008301846112b0565b92915050565b6000815190506112e9816110bd565b92915050565b60006020828403121561130557611304610ff9565b5b6000611313848285016112da565b91505092915050565b600082825260208201905092915050565b7f6f6e6c792061646d696e00000000000000000000000000000000000000000000600082015250565b6000611363600a8361131c565b915061136e8261132d565b602082019050919050565b6000602082019050818103600083015261139281611356565b9050919050565b60006060820190506113ae60008301866112b0565b6113bb60208301856112b0565b6113c86040830184611093565b949350505050565b60008115159050919050565b6113e5816113d0565b81146113f057600080fd5b50565b600081519050611402816113dc565b92915050565b60006020828403121561141e5761141d610ff9565b5b600061142c848285016113f3565b91505092915050565b7f62616c616e636520746f6f206c6f770000000000000000000000000000000000600082015250565b600061146b600f8361131c565b915061147682611435565b602082019050919050565b6000602082019050818103600083015261149a8161145e565b9050919050565b60006040820190506114b660008301856112b0565b6114c36020830184611093565b9392505050565b60006114d582611155565b9050919050565b6114e5816114ca565b82525050565b600060408201905061150060008301856114dc565b61150d6020830184611093565b9392505050565b60008151905061152381611030565b92915050565b60006020828403121561153f5761153e610ff9565b5b600061154d84828501611514565b91505092915050565b7f63546f6b656e236d696e742829206661696c65642e2073656520436f6d706f7560008201527f6e64204572726f725265706f727465722e736f6c20666f722064657461696c73602082015250565b60006115b260408361131c565b91506115bd82611556565b604082019050919050565b600060208201905081810360008301526115e1816115a5565b9050919050565b7f63546f6b656e2372656465656d556e6465726c79696e672829206661696c656460008201527f2e2073656520436f6d706f756e64204572726f725265706f727465722e736f6c60208201527f20666f72206d6f72652064657461696c73000000000000000000000000000000604082015250565b600061166a60518361131c565b9150611675826115e8565b606082019050919050565b600060208201905081810360008301526116998161165d565b9050919050565b7f634574682372656465656d556e6465726c79696e672829206661696c65642e2060008201527f73656520436f6d706f756e64204572726f725265706f727465722e736f6c206660208201527f6f72206d6f72652064657461696c730000000000000000000000000000000000604082015250565b6000611722604f8361131c565b915061172d826116a0565b606082019050919050565b6000602082019050818103600083015261175181611715565b905091905056fea264697066735822122027a203b3a7a1f617bbb8f20c9dc086cf79e833bf177d64a93bf0463730f3ab2264736f6c63430008130033",
  "immutableReferences": {},
  "source": "pragma solidity ^0.8.19;\r\n\r\nimport '@openzeppelin/contracts/token/ERC20/IERC20.sol';\r\nimport './Compound.sol';\r\n\r\ncontract Wallet is Compound {\r\n  address public admin;\r\n\r\n  constructor(\r\n    address _comptroller, \r\n    address _cEthAddress\r\n  ) Compound(_comptroller, _cEthAddress) {\r\n    admin = msg.sender;\r\n  }\r\n\r\n  function deposit(\r\n    address cTokenAddress, \r\n    uint underlyingAmount\r\n  ) \r\n    onlyAdmin()\r\n    external \r\n  {\r\n    address underlyingAddress = getUnderlyingAddress(cTokenAddress);\r\n    IERC20(underlyingAddress).transferFrom(msg.sender, address(this), underlyingAmount);\r\n    supply(cTokenAddress, underlyingAmount);\r\n  }\r\n\r\n  function withdraw(\r\n    address cTokenAddress, \r\n    uint underlyingAmount,\r\n    address recipient\r\n  ) \r\n    onlyAdmin()\r\n    external  \r\n  {\r\n    require(\r\n      getUnderlyingBalance(cTokenAddress) >= underlyingAmount, \r\n      'balance too low'\r\n    );\r\n    claimComp();\r\n    redeem(cTokenAddress, underlyingAmount);\r\n\r\n    address underlyingAddress = getUnderlyingAddress(cTokenAddress); \r\n    IERC20(underlyingAddress).transfer(recipient, underlyingAmount);\r\n\r\n    address compAddress = getCompAddress(); \r\n    IERC20 compToken = IERC20(compAddress);\r\n    uint compAmount = compToken.balanceOf(address(this));\r\n    compToken.transfer(recipient, compAmount);\r\n  }\r\n\r\n  function withdrawEth(\r\n    uint underlyingAmount,\r\n    address payable recipient\r\n  ) \r\n    onlyAdmin()\r\n    external  \r\n  {\r\n    require(\r\n      getUnderlyingEthBalance() >= underlyingAmount, \r\n      'balance too low'\r\n    );\r\n    claimComp();\r\n    redeemEth(underlyingAmount);\r\n\r\n    recipient.transfer(underlyingAmount);\r\n\r\n    address compAddress = getCompAddress(); \r\n    IERC20 compToken = IERC20(compAddress);\r\n    uint compAmount = compToken.balanceOf(address(this));\r\n    compToken.transfer(recipient, compAmount);\r\n  }\r\n\r\n  receive() external payable {\r\n    supplyEth(msg.value);\r\n  }\r\n\r\n  modifier onlyAdmin() {\r\n    require(msg.sender == admin, 'only admin');\r\n    _;\r\n  }\r\n}",
  "sourcePath": "C:\\Users\\Paulg\\Desktop\\Projects\\compound-wallet\\contracts\\Wallet.sol",
  "compiler": {
    "name": "solc",
    "version": "0.8.19+commit.7dd6d404.Emscripten.clang"
  },
  "schemaVersion": "3.4.11",
  "updatedAt": "2023-03-10T20:53:52.473Z",
  "networkType": "ethereum",
  "devdoc": {
    "kind": "dev",
    "methods": {},
    "version": 1
  },
  "userdoc": {
    "kind": "user",
    "methods": {},
    "version": 1
  }
}