{
  "contractName": "Compound",
  "abi": [
    {
      "inputs": [
        {
          "internalType": "address",
          "name": "_comptroller",
          "type": "address"
        },
        {
          "internalType": "address",
          "name": "_cEthAddress",
          "type": "address"
        }
      ],
      "stateMutability": "nonpayable",
      "type": "constructor"
    },
    {
      "inputs": [],
      "name": "cEth",
      "outputs": [
        {
          "internalType": "contract CEthInterface",
          "name": "",
          "type": "address"
        }
      ],
      "stateMutability": "view",
      "type": "function"
    },
    {
      "inputs": [],
      "name": "comptroller",
      "outputs": [
        {
          "internalType": "contract ComptrollerInterface",
          "name": "",
          "type": "address"
        }
      ],
      "stateMutability": "view",
      "type": "function"
    },
    {
      "inputs": [
        {
          "internalType": "address",
          "name": "cTokenAddress",
          "type": "address"
        }
      ],
      "name": "getcTokenBalance",
      "outputs": [
        {
          "internalType": "uint256",
          "name": "",
          "type": "uint256"
        }
      ],
      "stateMutability": "view",
      "type": "function"
    },
    {
      "inputs": [
        {
          "internalType": "address",
          "name": "cTokenAddress",
          "type": "address"
        }
      ],
      "name": "getUnderlyingBalance",
      "outputs": [
        {
          "internalType": "uint256",
          "name": "",
          "type": "uint256"
        }
      ],
      "stateMutability": "nonpayable",
      "type": "function"
    },
    {
      "inputs": [],
      "name": "getUnderlyingEthBalance",
      "outputs": [
        {
          "internalType": "uint256",
          "name": "",
          "type": "uint256"
        }
      ],
      "stateMutability": "nonpayable",
      "type": "function"
    }
  ],
  "bytecode": "0x608060405234801561001057600080fd5b506040516106ac3803806106ac8339818101604052810190610032919061011d565b816000806101000a81548173ffffffffffffffffffffffffffffffffffffffff021916908373ffffffffffffffffffffffffffffffffffffffff16021790555080600160006101000a81548173ffffffffffffffffffffffffffffffffffffffff021916908373ffffffffffffffffffffffffffffffffffffffff160217905550505061015d565b600080fd5b600073ffffffffffffffffffffffffffffffffffffffff82169050919050565b60006100ea826100bf565b9050919050565b6100fa816100df565b811461010557600080fd5b50565b600081519050610117816100f1565b92915050565b60008060408385031215610134576101336100ba565b5b600061014285828601610108565b925050602061015385828601610108565b9150509250929050565b6105408061016c6000396000f3fe608060405234801561001057600080fd5b50600436106100575760003560e01c80631031cb5f1461005c5780635fe3b5671461008c578063703d795c146100aa578063a44026a3146100c8578063f0d23e8f146100e6575b600080fd5b61007660048036038101906100719190610370565b610116565b60405161008391906103b6565b60405180910390f35b610094610199565b6040516100a19190610430565b60405180910390f35b6100b26101bd565b6040516100bf91906103b6565b60405180910390f35b6100d0610262565b6040516100dd919061046c565b60405180910390f35b61010060048036038101906100fb9190610370565b610288565b60405161010d91906103b6565b60405180910390f35b60008173ffffffffffffffffffffffffffffffffffffffff166370a08231306040518263ffffffff1660e01b81526004016101519190610496565b602060405180830381865afa15801561016e573d6000803e3d6000fd5b505050506040513d601f19601f8201168201806040525081019061019291906104dd565b9050919050565b60008054906101000a900473ffffffffffffffffffffffffffffffffffffffff1681565b6000600160009054906101000a900473ffffffffffffffffffffffffffffffffffffffff1673ffffffffffffffffffffffffffffffffffffffff16633af9e669306040518263ffffffff1660e01b815260040161021a9190610496565b6020604051808303816000875af1158015610239573d6000803e3d6000fd5b505050506040513d601f19601f8201168201806040525081019061025d91906104dd565b905090565b600160009054906101000a900473ffffffffffffffffffffffffffffffffffffffff1681565b60008173ffffffffffffffffffffffffffffffffffffffff16633af9e669306040518263ffffffff1660e01b81526004016102c39190610496565b6020604051808303816000875af11580156102e2573d6000803e3d6000fd5b505050506040513d601f19601f8201168201806040525081019061030691906104dd565b9050919050565b600080fd5b600073ffffffffffffffffffffffffffffffffffffffff82169050919050565b600061033d82610312565b9050919050565b61034d81610332565b811461035857600080fd5b50565b60008135905061036a81610344565b92915050565b6000602082840312156103865761038561030d565b5b60006103948482850161035b565b91505092915050565b6000819050919050565b6103b08161039d565b82525050565b60006020820190506103cb60008301846103a7565b92915050565b6000819050919050565b60006103f66103f16103ec84610312565b6103d1565b610312565b9050919050565b6000610408826103db565b9050919050565b600061041a826103fd565b9050919050565b61042a8161040f565b82525050565b60006020820190506104456000830184610421565b92915050565b6000610456826103fd565b9050919050565b6104668161044b565b82525050565b6000602082019050610481600083018461045d565b92915050565b61049081610332565b82525050565b60006020820190506104ab6000830184610487565b92915050565b6104ba8161039d565b81146104c557600080fd5b50565b6000815190506104d7816104b1565b92915050565b6000602082840312156104f3576104f261030d565b5b6000610501848285016104c8565b9150509291505056fea26469706673582212207065d3ec832cc1e75cff71f7925b5dd0349ea37fd18014049b375270394a4fb264736f6c63430008130033",
  "immutableReferences": {},
  "source": "pragma solidity ^0.8.19;\r\n\r\nimport '@openzeppelin/contracts/token/ERC20/IERC20.sol';\r\nimport './CTokenInterface.sol';\r\nimport './CEthInterface.sol';\r\nimport './ComptrollerInterface.sol';\r\n\r\ncontract Compound {\r\n  ComptrollerInterface public comptroller;\r\n  CEthInterface public cEth;\r\n\r\n  constructor(\r\n    address _comptroller,\r\n    address _cEthAddress\r\n  ) {\r\n    comptroller = ComptrollerInterface(_comptroller);\r\n    cEth = CEthInterface(_cEthAddress);\r\n  }\r\n\r\n//Lending supply\r\n  function supply(address cTokenAddress, uint underlyingAmount) internal {\r\n    CTokenInterface cToken = CTokenInterface(cTokenAddress);\r\n    address underlyingAddress = cToken.underlying(); \r\n    IERC20(underlyingAddress).approve(cTokenAddress, underlyingAmount);\r\n    uint result = cToken.mint(underlyingAmount);\r\n    require(\r\n      result == 0, \r\n      'cToken#mint() failed. see Compound ErrorReporter.sol for details'\r\n    );\r\n  }\r\n\r\n  function supplyEth(uint underlyingAmount) internal {\r\n    cEth.mint{value: underlyingAmount}();\r\n  }\r\n\r\n//Redeem cTooen\r\n  function redeem(address cTokenAddress, uint underlyingAmount) internal {\r\n    CTokenInterface cToken = CTokenInterface(cTokenAddress);\r\n    uint result = cToken.redeemUnderlying(underlyingAmount);\r\n    require(\r\n      result == 0,\r\n      'cToken#redeemUnderlying() failed. see Compound ErrorReporter.sol for more details'\r\n    );\r\n  }\r\n\r\n//Redeem ether\r\n  function redeemEth(uint underlyingAmount) internal {\r\n    uint result = cEth.redeemUnderlying(underlyingAmount);\r\n    require(\r\n      result == 0,\r\n      'cEth#redeemUnderlying() failed. see Compound ErrorReporter.sol for more details'\r\n    );\r\n  }\r\n\r\n  function claimComp() internal {\r\n    comptroller.claimComp(address(this));\r\n  }\r\n\r\n  function getCompAddress() internal view returns(address) {\r\n    return comptroller.getCompAddress();\r\n  }\r\n\r\n  function getUnderlyingAddress(\r\n    address cTokenAddress\r\n  ) \r\n    internal \r\n    view \r\n    returns(address) \r\n  {\r\n    return CTokenInterface(cTokenAddress).underlying();\r\n  }\r\n\r\n  function getcTokenBalance(address cTokenAddress) public view returns(uint){\r\n    return CTokenInterface(cTokenAddress).balanceOf(address(this));\r\n  }\r\n\r\n  function getUnderlyingBalance(address cTokenAddress) public returns(uint){\r\n    return CTokenInterface(cTokenAddress).balanceOfUnderlying(address(this));\r\n  }\r\n\r\n  function getUnderlyingEthBalance() public returns(uint){\r\n    return cEth.balanceOfUnderlying(address(this));\r\n  }\r\n}",
  "sourcePath": "C:\\Users\\Paulg\\Desktop\\Projects\\compound-wallet\\contracts\\Compound.sol",
  "compiler": {
    "name": "solc",
    "version": "0.8.19+commit.7dd6d404.Emscripten.clang"
  },
  "schemaVersion": "3.4.11",
  "updatedAt": "2023-03-10T20:42:32.791Z",
  "devdoc": {
    "kind": "dev",
    "methods": {},
    "version": 1
  },
  "userdoc": {
    "kind": "user",
    "methods": {},
    "version": 1
  }
}